:100800002020202020204545333337202020202061
:10081000002A2A2A2A2A2A2A2A2A2A2A2A2A2A2A62
:100820002A2A2A2A2A2A2A2A2A0D0A002A2A2A2A8F
:100830002A2A383035312054657374732A2A2A2ABB
:100840002A2A2A2A0D0A0050726573732031206605
:100850006F72204C434420746573740D0A0050720B
:10086000657373203220666F72204C454420746596
:1008700073740D0A004C4344207465737465640DF1
:100880000A004C4544207465737465640D0A004980
:100890006E636F727265637420746573742E20507A
:1008A00061737320636F7272656374206E756D621D
:0508B00065720D0A0055
:040C3400C101C10039
:100AF300E4F5A0C282C280C2817F38FE120BDE12EF
:100B03000B7A7F067E00120BDE120B7A7F0C7E00BF
:100B1300120BDE120B7A7F017E00120BDE120B7AB0
:070B23007F807E00020BDE63
:040B7A007F047E0076
:100B7E00E4FDFCC3ED9FEC9E5015E4FBFA0BBB00AD
:0F0B8E00010ABA01F8BB7EF50DBD00010C80E431
:010B9D002235
:1008B5008E088F098B0A8A0B890C7C277D101209FB
:1008C500A8EF2430120974AE08AF097C277D1012F9
:1008D50009A87E037FE8CFCDCFCECCCE1209A8EFF5
:1008E5002430AB0AAA0BA90C900001120986AE08A8
:1008F500AF097C037DE81209A87E007F64CFCDCFC8
:10090500CECCCE1209A8EF2430AB0AAA0BA90C90C5
:100915000002120986AE08AF097C007D641209A8A1
:100925007E007F0ACFCDCFCECCCE1209A8EF2430E2
:10093500AB0AAA0BA90C900003120986AE08AF09F1
:100945007C007D0A1209A8ED2430AB0AAA0BA90C7C
:0609550090000402098677
:100BDE00C280C281D2828FA07F0A7E00120B7EC29B
:020BEE00822261
:100BF000D280C281D2828FA07F0A7E00120B7EC279
:020C000082224E
:100B55008B0E8A0F8910AB0EAA0FA91012095B60C4
:100B6500130510E5107002050F14F912095BFF1249
:050B75000BF080E222FC
:100C0200758920758DF3759850D28ED2ACD2AF22F1
:080C2C008F993001FDC2012285
:060B2A007BFF7A0879113F
:100B30008B0E8A0F8910AB0EAA0FA91012095B60E9
:100B4000130510E5107002050F14F912095BFF126E
:050B50000C2C80E222E4
:090C2200E4FF3000FDC200AF99AF
:010C2B0022A6
:03002300020C12BA
:100C1200309905C299D20132309804C298D200327A
:100BC0007F807E00120BDE7BFF7A087900120B55C6
:0E0BD0007FD07E07120B7E7F017E00020BDEBF
:100B9E004390807FF47E01120B7E759080120B7E47
:100BAE00759040120B7E759020120B7E7590100280
:020BBE000B7EAC
:100A8900E4F50D75900F7FF47E01120B7E120AF3C7
:100A9900120C02120B2A7BFF7A08792C120B3012E6
:100AA9000B2A7BFF7A087947120B307BFF7A08798A
:100AB9005E120B30120C228F0DE50D24CE600E0450
:100AC9007016120BC07BFF7A0879758011120B9E84
:100AD9007BFF7A08798280067BFF7A08798F120B6F
:0A0AE900307F647E00120B7E80CA8D
:030000000209FDF5
:0C09FD00787FE4F6D8FD758120020A44E2
:10095B00BB010689828A83E0225002E722BBFE029A
:09096B00E32289828A83E49322CD
:10097400BB010689828A83F0225002F722BBFE0162
:02098400F3225C
:10098600F8BB010DE58229F582E5833AF583E8F0A7
:10099600225006E92582C8F622BBFE05E92582C853
:0209A600F2223B
:1009A800BC000BBE0029EF8DF084FFADF022E4CC33
:1009B800F875F008EF2FFFEE33FEEC33FCEE9DECFC
:1009C800984005FCEE9DFE0FD5F0E9E4CEFD22ED42
:1009D800F8F5F0EE8420D21CFEADF075F008EF2F8C
:1009E800FFED33FD4007985006D5F0F222C398FD7D
:0509F8000FD5F0EA221A
:100A0900020A89E493A3F8E493A34003F68001F270
:100A190008DFF48029E493A3F85407240CC8C333EE
:100A2900C4540F4420C8834004F456800146F6DFBD
:100A3900E4800B0102040810204080900C34E47E0D
:100A4900019360BCA3FF543F30E509541FFEE493B2
:100A5900A360010ECF54C025E060A840B8E493A379
:100A6900FAE493A3F8E493A3C8C582C8CAC583CAA4
:100A7900F0A3C8C582C8CAC583CADFE9DEE780BE5C
:010C380000BB
:00000001FF
